:100000000C9462000C948A000C948A000C948A0070
:100010000C948A000C948A000C948A000C948A0038
:100020000C948A000C948A000C948A000C948A0028
:100030000C948A000C948A000C948A000C948A0018
:100040000C94EE020C948A000C945E030C9438031A
:100050000C948A000C948A000C948A000C948A00F8
:100060000C948A000C948A000000000023002600F3
:10007000290000000000240027002A0000000000E2
:10008000250028002B0004040404040404040202D4
:100090000202020203030303030301020408102007
:1000A0004080010204081020010204081020000012
:1000B0000008000201000003040700000000000027
:1000C0000000830411241FBECFEFD8E0DEBFCDBFF8
:1000D00011E0A0E0B1E0E4EBF9E002C005900D9280
:1000E000AC35B107D9F722E0ACE5B1E001C01D9213
:1000F000A230B207E1F710E0C2E6D0E004C02197D9
:10010000FE010E94D204C136D107C9F70E949003B4
:100110000C94D8040C940000833081F028F48130D2
:1001200099F08230A9F008958730A9F08830C9F09D
:100130008430B1F4809180008F7D03C08091800075
:100140008F7780938000089584B58F7784BD08955C
:1001500084B58F7DFBCF8091B0008F778093B00006
:1001600008958091B0008F7DF9CF1F93CF93DF93D7
:10017000282F30E0F901E255FF4F8491F901E6564E
:10018000FF4FD491F901EA57FF4FC491CC23A9F056
:10019000162F81110E948C00EC2FF0E0EE0FFF1F54
:1001A000E458FF4FA591B4918FB7F894EC911111D9
:1001B00008C0D095DE23DC938FBFDF91CF911F91D4
:1001C0000895DE2BF8CFCF93DF9390E0FC01E65645
:1001D000FF4F24918A579F4FFC0184918823D1F0CF
:1001E00090E0880F991FFC01EE58FF4FA591B49144
:1001F000FC01E458FF4FC591D491623071F49FB770
:10020000F8943C91822F809583238C93E8812E2B48
:1002100028839FBFDF91CF9108958FB7F894EC9119
:100220002E2B2C938FBFF6CF3FB7F89480916101AE
:1002300090916201A0916301B091640126B5A89BE1
:1002400005C02F3F19F00196A11DB11D3FBFBA2F68
:10025000A92F982F8827BC01CD01620F711D811D28
:10026000911D42E0660F771F881F991F4A95D1F7AD
:1002700008958F929F92AF92BF92CF92DF92EF92AA
:10028000FF920E9414014B015C0184EFC82EDD2413
:10029000D394E12CF12C0E941401681979098A0980
:1002A0009B09683E734081059105A8F321E0C21ABD
:1002B000D108E108F10888EE880E83E0981EA11CA1
:1002C000B11CC114D104E104F10429F7FF90EF90AF
:1002D000DF90CF90BF90AF909F908F900895AF9296
:1002E000BF92CF92DF92EF92FF920F931F93CF9323
:1002F000DF936C017B018B01040F151FEB015E0185
:10030000AE18BF08C017D10759F06991D601ED9119
:10031000FC910190F081E02DC6010995892B79F7B8
:10032000C501DF91CF911F910F91FF90EF90DF906A
:10033000CF90BF90AF900895FC01538D448D252F31
:1003400030E0842F90E0821B930B541710F0CF966F
:10035000089501970895FC01918D828D981761F0A1
:10036000A28DAE0FBF2FB11D5D968C91928D9F5FB8
:100370009F73928F90E008958FEF9FEF0895FC0197
:10038000918D828D981731F0828DE80FF11D858D4A
:1003900090E008958FEF9FEF0895FC01918D228DDD
:1003A000892F90E0805C9F4F821B91098F73992762
:1003B000089585E691E00E94CD0121E0892B09F4A2
:1003C00020E0822F089580E090E0892B29F00E94A0
:1003D000D90181110C9400000895FC01A48DA80F8F
:1003E000B92FB11DA35ABF4F2C91848D90E0019677
:1003F0008F739927848FA689B7892C93A089B18997
:100400008C91837080648C93938D848D981306C037
:100410000288F389E02D80818F7D80830895EF929B
:10042000FF920F931F93CF93DF93EC0181E0888FAE
:100430009B8D8C8D98131AC0E889F989808185FF7E
:1004400015C09FB7F894EE89FF896083E889F98920
:1004500080818370806480839FBF81E090E0DF9122
:10046000CF911F910F91FF90EF900895F62E0B8D75
:1004700010E00F5F1F4F0F731127E02E8C8D8E1130
:100480000CC00FB607FCFACFE889F989808185FF97
:10049000F5CFCE010E94ED01F1CFEB8DEC0FFD2FDA
:1004A000F11DE35AFF4FF0829FB7F8940B8FEA8952
:1004B000FB8980818062CFCFCF93DF93EC01888D61
:1004C0008823B9F0AA89BB89E889F9898C9185FDCF
:1004D00003C0808186FD0DC00FB607FCF7CF8C915D
:1004E00085FFF2CF808185FFEDCFCE010E94ED0127
:1004F000E9CFDF91CF910895FC0101900020E9F749
:100500003197AF01481B590BBC0185E691E00C9473
:100510006F018F929F92AF92BF920F931F93CF93D1
:10052000DF93CDB7DEB7A1970FB6F894DEBF0FBE4D
:10053000CDBF19A2423008F44AE08E010F5D1F4F73
:10054000842E912CB12CA12CA50194010E94B00401
:10055000E62FB901CA01EA30F4F4E05DD801EE9368
:100560008D01232B242B252B79F790E080E0109729
:1005700019F0CD010E947C02A1960FB6F894DEBF5F
:100580000FBECDBFDF91CF911F910F91BF90AF9064
:100590009F908F900895E95CE1CFCF92DF92EF9228
:1005A000FF92CF93DF936B017C016DE285E691E0D2
:1005B0000E940F02EC0166277727CB016C197D0999
:1005C0008E099F094AE00E9489028C0F9D1FDF91CE
:1005D000CF91FF90EF90DF90CF9008951F920F92F0
:1005E0000FB60F9211242F933F938F939F93AF9346
:1005F000BF9380915D0190915E01A0915F01B091E8
:10060000600130915C0123E0230F2D3758F50196EE
:10061000A11DB11D20935C0180935D0190935E014B
:10062000A0935F01B093600180916101909162019C
:10063000A0916301B09164010196A11DB11D809349
:10064000610190936201A0936301B0936401BF9133
:10065000AF919F918F913F912F910F900FBE0F906F
:100660001F90189526E8230F0296A11DB11DD2CF29
:100670001F920F920FB60F9211242F933F934F9317
:100680005F936F937F938F939F93AF93BF93EF93FA
:10069000FF9385E691E00E94ED01FF91EF91BF91FC
:1006A000AF919F918F917F916F915F914F913F910A
:1006B0002F910F900FBE0F901F9018951F920F92C1
:1006C0000FB60F9211242F938F939F93EF93FF9365
:1006D000E0917501F09176018081E0917B01F091CC
:1006E0007C0182FD1BC0908180917E018F5F8F73A2
:1006F00020917F01821741F0E0917E01F0E0EB59FB
:10070000FE4F958F80937E01FF91EF919F918F9186
:100710002F910F900FBE0F901F9018958081F4CFEE
:10072000789484B5826084BD84B5816084BD85B5CC
:10073000826085BD85B5816085BD80916E008160D8
:1007400080936E001092810080918100826080937E
:100750008100809181008160809381008091800080
:100760008160809380008091B10084608093B100AB
:100770008091B00081608093B00080917A008460A5
:1007800080937A0080917A00826080937A008091D1
:100790007A00816080937A0080917A0080688093EB
:1007A0007A001092C100E0917501F091760182E02B
:1007B0008083E0917101F09172011082E0917301E8
:1007C000F091740180E1808310927D01E0917901C4
:1007D000F0917A0186E08083E0917701F0917801D1
:1007E000808180618083E0917701F0917801808140
:1007F00088608083E0917701F09178018081806842
:100800008083E0917701F091780180818F7D8083F2
:1008100061E08DE00E94E30062E082E00E94E3007C
:1008200061E083E00E94E30082E191E00E947C02AB
:1008300085E391E00E947C02C0EBD0E00CE910E07F
:1008400098E8E92E90E0F92E20E0C22E20E0D22E8A
:10085000FE018491F801A490F701B490912C812CB1
:10086000BB2099F081110E948C00EB2DF0E0EE0F7F
:10087000FF1FE859FF4FA591B4918C91A82291E0F8
:1008800080E009F490E0892E982E61E08DE00E94CE
:10089000B50061E083E00E94B50088E391E00E942A
:1008A0007C02092C000CAA08BB084AE0C501B4016F
:1008B0000E94890285E391E00E947C020E94390136
:1008C00060E08DE00E94B50060E083E00E94B5002A
:1008D00089E491E00E947C024AE0C501B4010E94D3
:1008E000890285E391E00E947C020E943901C114D3
:1008F000D10409F4ADCF0E94D901882309F4A8CF0F
:100900000E940000A5CFE5E6F1E01382128288EE96
:1009100093E0A0E0B0E084839583A683B78384E06E
:1009200091E09183808385EC90E09587848784ECC7
:1009300090E09787868780EC90E0918B808B81ECAC
:1009400090E0938B828B82EC90E0958B848B86EC8D
:1009500090E0978B868B118E128E138E148E0895D5
:10096000A1E21A2EAA1BBB1BFD010DC0AA1FBB1FB3
:10097000EE1FFF1FA217B307E407F50720F0A21B25
:10098000B30BE40BF50B661F771F881F991F1A9492
:1009900069F760957095809590959B01AC01BD01BC
:1009A000CF010895EE0FFF1F0590F491E02D0994FB
:0409B000F894FFCFE9
:1009B400000000000F026F019C015C02CD01AB013D
:1009C400BF0141726475696E6F20556E6F20526568
:1009D400763320456D756C61746F72205374617247
:1009E40074656421000D0A004C4544204F4E2C20B0
:1009F400427574746F6E3A20004C4544204F46464D
:0C0A04002C20427574746F6E3A200000C4
:00000001FF
